S0210000506F7765725F446973747269627574696F6E5F6163746976652E73726563BC
S11300000C9449000C9466000C9466000C946600F1
S11300100C9466000C9466000C9466000C946600C4
S11300200C9466000C9466000C9466000C946600B4
S11300300C9462070C9466000C9466000C94F4060D
S11300400C9466000C9466000C9466000C94660094
S11300500C9466000C9466000C9466000C94660084
S11300600C9466000C9466000C9466000C94BE0715
S11300700C9466000C9466000C9466003401C6016E
S11300804002A402E10228037303FE0393042F0138
S1130090890511241FBECFEFD8E0DEBFCDBF11E02C
S11300A0A0E0B1E0EAE7F6E102C005900D92A837BE
S11300B0B107D9F722E0A8E7B1E001C01D92A63844
S11300C0B207E1F70E94EF080C943B0B0C9400007C
S11300D080E0ADEEB0E03EEE20E0982F9295907F68
S11300E09C93E32FF22F1192E83FF105E1F78F5F24
S11300F08F3099F70895EDEEF0E020811082809121
S1130100EF00807C69F081E0ADEEB0E0EFEEF0E06E
S1130110982F9295907F9C939081907C29F401C0B4
S113012080E02093ED0008958F5F8F3089F720934E
S1130130ED008FEF08958091EF00807C61F0809155
S1130140EE00982F907E903241F0903441F0903A36
S113015041F08F7108958FEF089580E2089580E44F
S1130160089580EA0895CF93DF93BC018091EF0056
S11301708F7099F090E0CAEFD0E0AFEEB0E0288144
S1130180FB01E90FF11D20839F5F2C91492F50E063
S11301902F7030E04217530794F3DF91CF91089505
S11301A081E08093D80082E08093E20084E0809331
S11301B0E30083E18093E40081E008950E94D0008D
S11301C0882341F00E946800E8EDF0E080818260BD
S11301D0808381E008950F931F93CF93DF9300D022
S11301E000D0CDB7DEB7FC0181818C3099F48185D4
S11301F0803669F480818295807F8093ED00AFEE34
S1130200B0E08C918F738C931092EE001082118663
S113021080E038C58F010E947B008F3F09F42DC513
S113022090E6D80119969C9319978C938295807FB8
S11302308093ED00EEEEF0E01192E83FF105E1F776
S1130240D8011196EC918E2F90E0FC013197EB30A0
S1130250F10508F00EC5E25CFF4F0C94E60AF801C4
S113026086818111F9C30AC4D8011B968C911B970E
S11302708823E9F114968C911497982F929596956A
S1130280977015968C911597880F880F880F890F92
S11302908093F30013968C911397982F92959695CB
S11302A0977014968C911497880F880F880F890F74
S11302B08093F20012968C911297982F92959695AE
S11302C0977013968C911397880F880F880F890F56
S11302D08093F10012968C91880F880F880F809379
S11302E0F000EFEEF0E080818061808319C0F801B6
S11302F082818695869586959381F0E29F9F800DF5
S113030011248093F300D80112968C918295880F62
S1130310807E8093F200EFEEF0E080818F7E808318
S1130320F8018681882391F080E02AEF30E0D8013B
S11303301796ED91FC911897E80FF11D9081F90142
S113034090838F5F16969C91891788F3D8011A962B
S11303508C91882331F0E0EFF0E080818460808329
S113036005C0E0EFF0E080818B7F8083EFEEF0E06A
S11303709081D80116968C91892B808380818F730C
S1130380808380818064808380E07CC4F8018385DD
S1130390882381F18481982F929596959770858111
S11303A0880F880F880F890F8093F3008381982F1B
S11303B09295969597708481880F880F880F890F7E
S11303C08093F2008281982F9295969597708381FD
S11303D0880F880F880F890F8093F1008281880F1E
S11303E0880F880F8093F000EFEEF0E08081806149
S11303F0808317C082818695869586959381B0E225
S11304009B9F800D11248093F300F80182818295D3
S1130410880F807E8093F200EFEEF0E080818F7E83
S11304208083D80116968C91882391F080E02AEF7E
S113043030E0D8011796ED91FC911897E80FF11D63
S11304409081F90190838F5F16969C91891788F3A8
S1130450D8011A961C921A97E0EFF0E080818B7F06
S11304608083EFEEF0E0908116968C91892B808347
S113047080818F73808380818064808380E002C464
S1130480F8018385882381F18481982F929596952C
S113049097708581880F880F880F890F8093F300E8
S11304A08381982F9295969597708481880F880FF1
S11304B0880F890F8093F2008281982F92959695E8
S11304C097708381880F880F880F890F8093F100BC
S11304D08281880F880F880F8093F000EFEEF0E0A0
S11304E080818061808317C08281869586958695F8
S11304F09381B0E29B9F800D11248093F300F80157
S113050082818295880F807E8093F200EFEEF0E086
S113051080818F7E808381E0D8011A968C931A970C
S1130520E0EFF0E0808184608083EFEEF0E0908182
S113053016968C91892B808380818F738083808130
S11305408064808380E09EC319821A821B821C828D
S11305501092F7008A81982F9295969597708B81C7
S1130560880F880F880F890F8093F6008981982F50
S11305709295969597708A81880F880F880F890FB6
S11305808093F5008981880F880F880F24EF30E06D
S1130590F9018083EFEEF0E09081D80116968C91FA
S11305A0892B8083D9018C918B7F8C938C918E7F46
S11305B08C9380818F73808380818068808380E0C6
S11305C061C319821A821B821C821092F7008A81ED
S11305D0982F9295969597708B81880F880F880F26
S11305E0890F8093F6008981982F9295969597703C
S11305F08A81880F880F880F890F8093F50089817D
S1130600880F880F880F44EF50E0FA018083EFEEE3
S1130610F0E09081D80116968C911697892B8083EF
S11306201A961C92DA018C9184608C9320EF30E04E
S1130630D9018C918B7F8C93DA018C918E7F8C9372
S113064080818F73808380818068808380E01AC377
S113065019821A821B821C821092F7008A81982FB9
S11306609295969597708B81880F880F880F890FC4
S11306708093F6008981982F9295969597708A8138
S1130680880F880F880F890F8093F5008981880F60
S1130690880F880F44EF50E0FA018083EFEEF0E01A
S11306A09081D80116968C911697892B808381E0CE
S11306B01A968C93DA018C9184608C9320EF30E04D
S11306C0D9018C9184608C9380818F7D8083DA0141
S11306D08C918E7F8C9380818F73808380818068DE
S11306E0808380E0CFC2F8018385882381F18481EF
S11306F0982F9295969597708581880F880F880F0B
S1130700890F8093F3008381982F92959695977023
S11307108481880F880F880F890F8093F20082816B
S1130720982F9295969597708381880F880F880FDC
S1130730890F8093F1008281880F880F880F80933E
S1130740F000EFEEF0E080818061808317C0828149
S11307508695869586959381B0E29B9F800D1124A2
S11307608093F300F80182818295880F807E8093C4
S1130770F200EFEEF0E080818F7E80838FEF9FEFB9
S1130780DC0189839A83AB83BC838093F7008A81DD
S1130790982F9295969597708B81880F880F880F64
S11307A0890F8093F6008981982F9295969597707A
S11307B08A81880F880F880F890F8093F5008981BB
S11307C0880F880F880F24EF30E0D9018C93EFEE67
S11307D0F0E09081D80116968C91892B8083D90101
S11307E08C918B7F8C938C9181608C9380818F739F
S11307F0808380818068808380E044C2F80183859F
S1130800882381F18481982F92959695977085819C
S1130810880F880F880F890F8093F3008381982FA6
S11308209295969597708481880F880F880F890F09
S11308308093F2008281982F929596959770838188
S1130840880F880F880F890F8093F1008281880FA9
S1130850880F880F8093F000EFEEF0E080818061D4
S1130860808317C082818695869586959381B0E2B0
S11308709B9F800D11248093F300F801828182955F
S1130880880F807E8093F200EFEEF0E080818F7E0F
S113089080838FEF9FEFDC0189839A83AB83BC83D2
S11308A08093F7008A81982F9295969597708B8103
S11308B0880F880F880F890F8093F6008981982FFD
S11308C09295969597708A81880F880F880F890F63
S11308D08093F5008981880F880F880F44EF50E0DA
S11308E0DA018C93EFEEF0E09081D80116968C91AA
S11308F01697892B80831A961C92DA018C91846056
S11309008C9320EF30E0D9018C918B7F8C93DA01AA
S11309108C9181608C9380818F73808380818068C7
S1130920808380E0AFC1F8018385882381F18481CD
S1130930982F9295969597708581880F880F880FC8
S1130940890F8093F3008381982F929596959770E1
S11309508481880F880F880F890F8093F200828129
S1130960982F9295969597708381880F880F880F9A
S1130970890F8093F1008281880F880F880F8093FC
S1130980F000EFEEF0E080818061808317C0828107
S11309908695869586959381B0E29B9F800D112460
S11309A08093F300F80182818295880F807E809382
S11309B0F200EFEEF0E080818F7E80838FEF9FEF77
S11309C0DC0189839A83AB83BC838093F7008A819B
S11309D0982F9295969597708B81880F880F880F22
S11309E0890F8093F6008981982F92959695977038
S11309F08A81880F880F880F890F8093F500898179
S1130A00880F880F880F44EF50E0DA018C93EFEEE3
S1130A10F0E09081D80116968C911697892B8083EB
S1130A2081E01A968C93DA018C9184608C9320EF88
S1130A3030E0D9018C9184608C9380818F7D808398
S1130A40DA018C9181608C9380818F7380838081A3
S1130A508068808380E016C180E02AEF30E0D8010E
S1130A601796ED91FC911897E80FF11D9081F9010B
S1130A7090838F5F16969C91891788F319821A8246
S1130A801B821C821092F7008A81982F929596956A
S1130A9097708B81880F880F880F890F8093F600D9
S1130AA08981982F9295969597708A81880F880FDF
S1130AB0880F890F8093F5008981880F880F880F2C
S1130AC044EF50E0DA018C93EFEEF0E09081D8012E
S1130AD016968C911697892B808381E01A968C93B5
S1130AE0DA018C9184608C9320EF30E0D9018C91F1
S1130AF084608C93808180628083DA018C918E7F04
S1130B008C9380818F73808380818068808380E070
S1130B10B9C0F8018385882381F18481982F929547
S1130B20969597708581880F880F880F890F809319
S1130B30F3008381982F9295969597708481880FFE
S1130B40880F880F890F8093F2008281982F9295E5
S1130B50969597708381880F880F880F890F8093EB
S1130B60F1008281880F880F880F8093F000EFEEE8
S1130B70F0E080818061808317C0828186958695AC
S1130B8086959381B0E29B9F800D11248093F3009E
S1130B90F80182818295880F807E8093F200EFEEC7
S1130BA0F0E080818F7E8083D80116968C91882313
S1130BB091F080E02AEF30E0D8011796ED91FC9196
S1130BC01897E80FF11D9081F90190838F5F1696B5
S1130BD09C91891788F38FEF9FEFDC0189839A83B7
S1130BE0AB83BC838093F7008A81982F9295969566
S1130BF097708B81880F880F880F890F8093F60078
S1130C008981982F9295969597708A81880F880F7D
S1130C10880F890F8093F5008981880F880F880FCA
S1130C2044EF50E0DA018C93EFEEF0E09081D801CC
S1130C3016968C911697892B808381E01A968C9353
S1130C40DA018C9184608C9320EF30E0D9018C918F
S1130C5084608C93808180628083DA018C918160CE
S1130C608C9380818F73808380818068808380E00F
S1130C7009C0F801118680E005C08FE1D8011996FA
S1130C808C938FEF0F900F900F900F90DF91CF9177
S1130C901F910F910895EF92FF921F93CF93DF93CB
S1130CA0FC019185992309F492C09F3109F491C004
S1130CB09F3F09F490C0EF0180818295807F8093EB
S1130CC0ED000E949B00182F803259F020F48823F5
S1130CD009F483C072C0803409F464C0803A09F016
S1130CE06CC00F2EFFEEEF2EF12CF02DF70180815A
S1130CF08F708E838F8198850E94B3008091F0005D
S1130D0082FB882780F98A87F701808184FF2DC0C0
S1130D1081E08B87E3EFF0E0808186958695869568
S1130D208D83A2EFB0E08C9190818695869586950F
S1130D30F0E29F9F800D11248C83E1EFF0E080812D
S1130D409C9186958695869520E2929F800D11242C
S1130D508B838091F0009081869586958695E0E25C
S1130D609E9F800D11248A8313C01B86E3EFF0E05D
S1130D7080818295869587708B838091F200908123
S1130D80990F990F990F829586958770890F8A8399
S1130D901987EFEEF0E080818F7380831092EE006C
S1130DA080E01CC080E48987EFEEF0E080818F73DF
S1130DB080831092EE0080E011C01987EFEEF0E01E
S1130DC080818F7380831092EE0082E007C082E0FE
S1130DD005C082E003C082E001C081E0DF91CF91D1
S1130DE01F91FF90EF9008951F920F920FB60F92EC
S1130DF011242F933F934F938F939F93AF93BF935C
S1130E008091A4019091A501A091A601B091A701A0
S1130E100196A11DB11D8093A4019093A501A093F7
S1130E20A601B093A7018091A4019091A501A0917E
S1130E30A601B091A70187709927AA27BB27049719
S1130E40A105B10599F546B147FB442740F98091C6
S1130E50020190910301880F991F842B9093030141
S1130E6080930201009721F481E08093A30104C0E0
S1130E70019611F41092A30189B1282F217030E05A
S1130E808091000190910101880F991F822B932B6F
S1130E909093010180930001009721F481E08093F5
S1130EA0A20104C0019611F41092A201BF91AF9166
S1130EB09F918F914F913F912F910F900FBE0F9063
S1130EC01F9018951F920F920FB60F9211242F9313
S1130ED03F938F939F93AF93BF93EF93FF9380912F
S1130EE08A0190918B018F7090E020918901FC011F
S1130EF0EE0FFF1FDF01A80FB91FAA0FBB1FA20F20
S1130F00B11DAC5FBE4F2C912770322F3295307FCC
S1130F1028B12F78232B28B92091890131E0320F91
S1130F2030938901E80FF91FEE0FFF1FE20FF11D47
S1130F30EC5FFE4F808182FB882780F980FD419A17
S1130F4080FF4198909189018BEA989F812D11240B
S1130F5086958695282F220F820F880F981B9093D1
S1130F608901FF91EF91BF91AF919F918F913F9133
S1130F702F910F900FBE0F901F9018951F920F92F4
S1130F800FB60F9211242F933F934F935F936F9358
S1130F907F938F939F93AF93BF93EF93FF93CF93DD
S1130FA0DF9300D0CDB7DEB78091790090E09A83CB
S1130FB089838091880190E029813A814091780069
S1130FC0322F2227240F311DFC01EE0FFF1FE8559D
S1130FD0FE4F31832083019664E670E00E94B30AD9
S1130FE08093880180918D01882359F0E0918C01D0
S1130FF0F0E0E259FE4F8081806480937C0010927F
S11310008D010F900F90DF91CF91FF91EF91BF91E0
S1131010AF919F918F917F916F915F914F913F918C
S11310202F910F900FBE0F901F90189583E787B9EB
S113103080E888B982E08AB991E09BB993E894B9D1
S113104016BC99EF97BD84BD93E095BD10928500C1
S11310501092840021E13AE73093890020938800BC
S1131060109280009CE09093810080936E008093A6
S11310706F00789480EA80937B0082E480937C0004
S11310808CEE80937A0080937E0081E00E94DE00E3
S113109008950F931F93AFB7F89480E090E000E0B9
S11310A010E09801FC01EE0FFF1FE855FE4F408150
S11310B05181052E000C660B770B040F151F261F9C
S11310C0371F01968436910569F7AFBFC901B8018E
S11310D024E630E040E050E00E94C70AC9011F91B5
S11310E00F910895FB0122E0218313862BEE31E05A
S11310F03383228328E0268390878783CB010E9451
S1131100EB0008950F93CF93DF93209180013091EA
S11311108101409182015091830160918401709119
S113112085018091860190918701C0E0D0E0FE01A5
S1131130EE0FFF1FE059FD4F0190F081E02DDE011D
S1131140AD58BE4FAC91EE0FFF1FEE0FFF1FEA2B01
S1131150AF2FAA0FAA0B0CE00E94EC0A2E2B3F2BF8
S11311604A2B5A2B6A2B7A2B8A2B9A2B2196C53021
S1131170D105E9F6A0918A01B0918B01AF70BB272C
S1131180EB2FEE0FEE0B04E00E94EC0A2A2B2093C7
S113119080013B2B309381014E2B409382015E2BC7
S11311A0509383016E2B609384017E2B7093850191
S11311B08E2B809386019E2B90938701A8E8B1E043
S11311C0E8E7F1E020E831E08E918193E217F3073C
S11311D0D9F788E791E0DF91CF910F910895CF93EC
S11311E0DF93CDB7DEB727970FB6F894DEBF0FBEF7
S11311F0CDBF0E941608289AE3E7F1E083E08483D8
S1131200409A80832F9A82832998599884E090E0A9
S113121090938B0180938A018F017724739480913A
S1131220A4019091A501A091A601B091A701809677
S1131230A11DB11D89839A83AB83BC830E94490895
S113124020918C0130E0A901440F551FFA01E059A7
S1131250FD4F91838083F80161816D8363816E8387
S1131260F901EE0FFF1FEE0FFF1FE257FE4F8080C4
S11312709180A280B380F901ED58FE4F6081FA019C
S1131280EC59FE4F408151812090A4013090A5017A
S11312904090A6015090A70172016101C818D908B5
S11312A0EA08FB0875EFC71671E0D706E104F104FC
S11312B020F04817590708F4672DF901ED58FE4F3F
S11312C080818617A9F0F901ED58FE4F6083862FBF
S11312D090E020918A0130918B012817390724F47A
S11312E080918A0190918B0190938B0180938A0164
S11312F0F801908180818695892380FD409A80FF42
S11313004098928182818695892380FD2F9A80FF5F
S11313102F98948184818695892380FD289A80FF63
S11313202898818181FF0BC08091A30180FD299AB7
S113133080FF29988091A3018260818301C029984C
S1131340F801838181FF0BC08091A20180FD599A2D
S113135080FF59988091A2018260838301C05998CB
S113136080918A0190918B01049761F48091A3018B
S1131370882341F0CC24CA94D12CD0928B01C09202
S11313808A0113C080918A0190918B018F3F91054E
S113139061F48091A301811108C06894EE24E2F8FD
S11313A0F12CF0928B01E0928A0180918C018430BF
S11313B011F58091A4019091A501A091A601B0918D
S11313C0A70185369105A105B10520F08AE792E0D1
S11313D00E944B060E9482084C016AE772E00E9458
S11313E07208882341F0872D0E94DE006AE772E0CC
S11313F0C4010E94720880918C0190E0019665E01E
S113140070E00E94B30A80938C018091A301811142
S113141059C08091A4019091A501A091A601B09119
S1131420A7014091920150919301609194017091B0
S11314309501841B950BA60BB70B81349747AB41E1
S1131440B10508F43FC080918A0190918B018F838C
S113145085E090E090938B0180938A0128984098CE
S11314602F98299859988091A301811105C00000F3
S11314708091A3018823D9F38091A4019091A501BF
S1131480A091A601B091A70180939201909393013A
S1131490A0939401B09395018F8182FF07C0EFEF71
S11314A0F0E0F0938B01E0938A0106C08F8190E015
S11314B090938B0180938A01289A409A2F9A299AB3
S11314C010928C0170928D01F80191818D81981791
S11314D081F08091A4019091A501A091A601B09101
S11314E0A7018093920190939301A0939401B093E8
S11314F09501F80193818E81981781F08091A40160
S11315009091A501A091A601B091A70180939A01A1
S113151090939B01A0939C01B0939D0189819A8132
S1131520AB81BC814091A4015091A5016091A601B9
S11315307091A701481759076A077B0708F06FCE17
S1131540000049815A816B817C818091A401909132
S1131550A501A091A601B091A70184179507A6073C
S1131560B70770F35CCE97FB072E16F4009407D0F0
S113157077FD09D00E94050B07FC05D03EF4909539
S113158081959F4F0895709561957F4F0895052E1D
S113159097FB1EF400940E94DE0A57FD07D00E94B8
S11315A0190B07FC03D04EF40C94DE0A50954095B9
S11315B0309521953F4F4F4F5F4F089590958095FB
S11315C0709561957F4F8F4F9F4F0895EE0FFF1FCA
S11315D00590F491E02D09940F93083090F0982F22
S11315E0872F762F652F542F432F322F2227085011
S11315F0F4CF220F331F441F551F661F771F881F08
S1131600991F0A95B2F70F910895AA1BBB1B51E1CC
S113161007C0AA1FBB1FA617B70710F0A61BB70B5E
S1131620881F991F5A95A9F780959095BC01CD0103
S11316300895A1E21A2EAA1BBB1BFD010DC0AA1F0F
S1131640BB1FEE1FFF1FA217B307E407F50720F027
S1131650A21BB30BE40BF50B661F771F881F991FA2
S11316601A9469F760957095809590959B01AC01EB
S10D1670BD01CF010895F894FFCFE7
S113167AAAAAAAAA06070607060706010601060178
S113168A0000000000000000000000000307030738
S113169A030703070707070700000000000000000C
S11316AA000000000000000000000000000000002C
S11316BA00000000000006040001030702030203FD
S11316CA02030103010301030102010201020105EC
S11316DA01050105000400040004000400040203D7
S10B16EA0506070202020202D8
S9030000FC
